:100000000C9434000C9446000C9446000C94680147
:100010000C9446000C9446000C9446000C94460048
:100020000C9446000C9446000C9446000C94460038
:100030000C9446000C9446000C9446000C94460028
:100040000C9446000C9446000C9446000C94460018
:100050000C9446000C9446000C9446000C94460008
:100060000C9446000C94460011241FBECFEFD8E03C
:10007000DEBFCDBF21E0A0E0B1E001C01D92AB30FA
:10008000B207E1F70E9415010C94A4010C94000042
:1000900090910501913009F498C020F0923009F454
:1000A000A0C00895813019F0823019F12CC09091D0
:1000B0000101903140F59F5F909301019170909301
:1000C00004019795992797959BB92091010122707A
:1000D00030E0359527952093020125B92091010143
:1000E0002C7030E0359527953595279520930001A4
:1000F0000AC090910301903130F49F5F9093030107
:100100009F709093060120910601622F617070E04C
:10011000FB01EE0FFF1FEE0FFF1F922F9270692F52
:1001200070E075956795660F771F660F771F660FEE
:10013000771F922F9470492F50E05595479555950C
:10014000479542955295507F5427407F54272870F9
:1001500030E0359527953595279535952795220FCC
:10016000331F22953295307F3227207F322790919E
:1001700000019370E92B6E2B462B242B28B921E02C
:10018000909101019F3009F020E091E0813009F069
:1001900090E0922339F08EE08093010181E080931A
:1001A0000501089521E0909103019F3009F020E0BE
:1001B00091E0823009F090E09223F1F08EE080939C
:1001C000030182E080930501089589E78BB918B88F
:1001D00083E088B98BB180688BB985B1816085B9BE
:1001E000089584E28BB918B88BB18F778BB985B13C
:1001F0008E7F85B98CE388B908951092C1008FEF86
:100200008AB98BB987B918B814B884B1816084B938
:1002100085B185B9E8E6F0E0808181608083EBE616
:10022000F0E080818E60808308950E94FD007894C4
:10023000809108018130E1F7809109018111F8CFA7
:1002400082E18BB92FEF83ED90E321508040904005
:10025000E1F700C0000089E18BB92FEF83ED90E357
:10026000215080409040E1F700C0000080E38BB94E
:100270002FEF83ED90E3215080409040E1F700C0E4
:10028000000084E28BB92FEF83ED90E32150804092
:100290009040E1F700C0000089E78BB92FEF83EDB4
:1002A00090E3215080409040E1F700C0000080E4DE
:1002B0008BB92FEF83ED90E3215080409040E1F720
:1002C00000C0000081E08093070180930901B0CF56
:1002D0001F920F920FB60F9211242F933F934F93BB
:1002E0005F936F937F938F939F93AF93BF93EF939E
:1002F000FF93199903C081E0809308011A9908C0FF
:1003000080910701813021F480930A010E94480006
:100310001B9909C080910701813029F482E0809304
:100320000A010E944800FF91EF91BF91AF919F9108
:100330008F917F916F915F914F913F912F910F908E
:0C0340000FBE0F901F901895F894FFCF8F
:00000001FF
